{
  "contractName": "Relay",
  "abi": [
    {
      "constant": true,
      "inputs": [],
      "name": "HEIGHT_INTERVAL",
      "outputs": [
        {
          "name": "",
          "type": "uint32"
        }
      ],
      "payable": false,
      "stateMutability": "view",
      "type": "function"
    },
    {
      "inputs": [
        {
          "name": "_genesisHeader",
          "type": "bytes"
        },
        {
          "name": "_height",
          "type": "uint256"
        },
        {
          "name": "_anchorHeight",
          "type": "uint256"
        },
        {
          "name": "_anchorParentTime",
          "type": "uint256"
        },
        {
          "name": "_anchorNBits",
          "type": "uint256"
        }
      ],
      "payable": false,
      "stateMutability": "nonpayable",
      "type": "constructor"
    },
    {
      "anonymous": false,
      "inputs": [
        {
          "indexed": true,
          "name": "_first",
          "type": "bytes32"
        },
        {
          "indexed": true,
          "name": "_last",
          "type": "bytes32"
        }
      ],
      "name": "Extension",
      "type": "event"
    },
    {
      "anonymous": false,
      "inputs": [
        {
          "indexed": true,
          "name": "_from",
          "type": "bytes32"
        },
        {
          "indexed": true,
          "name": "_to",
          "type": "bytes32"
        },
        {
          "indexed": true,
          "name": "_gcd",
          "type": "bytes32"
        }
      ],
      "name": "NewTip",
      "type": "event"
    },
    {
      "constant": true,
      "inputs": [],
      "name": "getRelayGenesis",
      "outputs": [
        {
          "name": "",
          "type": "bytes32"
        }
      ],
      "payable": false,
      "stateMutability": "view",
      "type": "function"
    },
    {
      "constant": true,
      "inputs": [],
      "name": "getBestKnownDigest",
      "outputs": [
        {
          "name": "",
          "type": "bytes32"
        }
      ],
      "payable": false,
      "stateMutability": "view",
      "type": "function"
    },
    {
      "constant": true,
      "inputs": [],
      "name": "getLastReorgCommonAncestor",
      "outputs": [
        {
          "name": "",
          "type": "bytes32"
        }
      ],
      "payable": false,
      "stateMutability": "view",
      "type": "function"
    },
    {
      "constant": true,
      "inputs": [
        {
          "name": "_digest",
          "type": "bytes32"
        }
      ],
      "name": "findHeight",
      "outputs": [
        {
          "name": "",
          "type": "uint256"
        }
      ],
      "payable": false,
      "stateMutability": "view",
      "type": "function"
    },
    {
      "constant": true,
      "inputs": [
        {
          "name": "_digest",
          "type": "bytes32"
        },
        {
          "name": "_offset",
          "type": "uint256"
        }
      ],
      "name": "findAncestor",
      "outputs": [
        {
          "name": "",
          "type": "bytes32"
        }
      ],
      "payable": false,
      "stateMutability": "view",
      "type": "function"
    },
    {
      "constant": true,
      "inputs": [
        {
          "name": "_ancestor",
          "type": "bytes32"
        },
        {
          "name": "_descendant",
          "type": "bytes32"
        },
        {
          "name": "_limit",
          "type": "uint256"
        }
      ],
      "name": "isAncestor",
      "outputs": [
        {
          "name": "",
          "type": "bool"
        }
      ],
      "payable": false,
      "stateMutability": "view",
      "type": "function"
    },
    {
      "constant": false,
      "inputs": [
        {
          "name": "_anchor",
          "type": "bytes"
        },
        {
          "name": "_headers",
          "type": "bytes"
        }
      ],
      "name": "addHeaders",
      "outputs": [
        {
          "name": "",
          "type": "bool"
        }
      ],
      "payable": false,
      "stateMutability": "nonpayable",
      "type": "function"
    },
    {
      "constant": false,
      "inputs": [
        {
          "name": "_ancestor",
          "type": "bytes32"
        },
        {
          "name": "_currentBest",
          "type": "bytes"
        },
        {
          "name": "_newBest",
          "type": "bytes"
        },
        {
          "name": "_limit",
          "type": "uint256"
        }
      ],
      "name": "markNewHeaviest",
      "outputs": [
        {
          "name": "",
          "type": "bool"
        }
      ],
      "payable": false,
      "stateMutability": "nonpayable",
      "type": "function"
    }
  ],
  "bytecode": "0x60806040523480156200001157600080fd5b506040516200262038038062002620833981810160405260a08110156200003757600080fd5b8101908080516401000000008111156200005057600080fd5b820160208101848111156200006457600080fd5b81516401000000008111828201871017156200007f57600080fd5b505060208083015160408401516060850151608090950151939650909450929190600090620000d790620000c09088908490620006f6620001b4821b17901c565b62ffffff1916620001e360201b6200079b1760201c565b9050620000f58162ffffff19166200027d60201b620007da1760201c565b6200016157604080517f08c379a000000000000000000000000000000000000000000000000000000000815260206004820152600f60248201527f53746f70206265696e672064756d620000000000000000000000000000000000604482015290519081900360640190fd5b60006200017f8262ffffff19166200029c60201b62000ee81760201c565b6000818155600182905560028290559081526004602052604090209590955550600592909255600655600755506200087c9050565b815160009060208401620001da64ffffffffff851682846001600160e01b036200030016565b95945050505050565b6000818162000207818362ffffff19166200036360201b62000d751790919060201c565b50620002248462ffffff1916620004fc60201b62000eb31760201c565b6001600160601b031660501462000252576200024a6200050b60201b62000ec21760201c565b925062000276565b6200027360108562ffffff19166200051360201b62000eca1790919060201c565b92505b5050919050565b600062000293826001600160e01b036200052516565b1590505b919050565b600080620002b3836001600160e01b036200053116565b6001600160601b031690506000620002d4846001600160e01b03620004fc16565b6001600160601b03169050604051602081838560025afa5060208160208360025afa5051949350505050565b6000806200031d83856200054060201b62000cdd1790919060201c565b90506040518111156200032e575060005b80620003425762ffffff199150506200035c565b620003588585856001600160e01b03620005b916565b9150505b9392505050565b60006200037a83836001600160e01b03620005cc16565b620004f5576000620003af62000399856001600160e01b03620005f916565b64ffffffffff166001600160e01b03620005ff16565b915060009050620003d064ffffffffff85166001600160e01b03620005ff16565b604080517f5479706520617373657274696f6e206661696c65642e20476f742030780000006020808301919091526001600160b01b031960b088811b8216603d8501527f2e20457870656374656420307800000000000000000000000000000000000000604785015285901b1660548301528251603e818403018152605e8301938490527f08c379a000000000000000000000000000000000000000000000000000000000909352606282018181528351608284015283519496509294508493839260a2019185019080838360005b83811015620004b95781810151838201526020016200049f565b50505050905090810190601f168015620004e75780820380516001836020036101000a031916815260200191505b509250505060405180910390fd5b5090919050565b60181c6001600160601b031690565b62ffffff1990565b60d81b6001600160d81b039091161790565b62ffffff199081161490565b60781c6001600160601b031690565b81810182811015620005b357604080517f08c379a000000000000000000000000000000000000000000000000000000000815260206004820152601960248201527f4f766572666c6f7720647572696e67206164646974696f6e2e00000000000000604482015290519081900360640190fd5b92915050565b606092831b9190911790911b1760181b90565b600064ffffffffff8216620005ea846001600160e01b03620005f916565b64ffffffffff16149392505050565b60d81c90565b600080601f5b600f8160ff161115620006575760ff600882021684901c62000630816001600160e01b03620006b316565b61ffff16841793508160ff166010146200064c57601084901b93505b506000190162000605565b50600f5b60ff8160ff161015620006ad5760ff600882021684901c62000686816001600160e01b03620006b316565b61ffff16831792508160ff16600014620006a257601083901b92505b50600019016200065b565b50915091565b6000620006d0600f600484901c166001600160e01b03620006f016565b60ff161760081b62ffff0016620006e782620006f0565b60ff1617919050565b600060f08083179060ff821614156200070e57603091505062000297565b8060ff1660f114156200072657603191505062000297565b8060ff1660f214156200073e57603291505062000297565b8060ff1660f314156200075657603391505062000297565b8060ff1660f414156200076e57603491505062000297565b8060ff1660f514156200078657603591505062000297565b8060ff1660f614156200079e57603691505062000297565b8060ff1660f71415620007b657603791505062000297565b8060ff1660f81415620007ce57603891505062000297565b8060ff1660f91415620007e657603991505062000297565b8060ff1660fa1415620007fe57606191505062000297565b8060ff1660fb14156200081657606291505062000297565b8060ff1660fc14156200082e57606391505062000297565b8060ff1660fd14156200084657606491505062000297565b8060ff1660fe14156200085e57606591505062000297565b8060ff1660ff14156200087657606691505062000297565b50919050565b611d94806200088c6000396000f3fe608060405234801561001057600080fd5b50600436106100935760003560e01c806370d53c181161006657806370d53c18146101c457806374c3a3a9146101e5578063b985621a146102aa578063c58242cd146102d3578063e3d8d8d8146102db57610093565b80631910d9731461009857806330017b3b146100b257806360b5c390146100d557806365da41b9146100f2575b600080fd5b6100a06102e3565b60408051918252519081900360200190f35b6100a0600480360360408110156100c857600080fd5b50803590602001356102e9565b6100a0600480360360208110156100eb57600080fd5b50356102fe565b6101b06004803603604081101561010857600080fd5b810190602081018135600160201b81111561012257600080fd5b82018360208201111561013457600080fd5b803590602001918460018302840111600160201b8311171561015557600080fd5b919390929091602081019035600160201b81111561017257600080fd5b82018360208201111561018457600080fd5b803590602001918460018302840111600160201b831117156101a557600080fd5b509092509050610311565b604080519115158252519081900360200190f35b6101cc61048b565b6040805163ffffffff9092168252519081900360200190f35b6101b0600480360360808110156101fb57600080fd5b81359190810190604081016020820135600160201b81111561021c57600080fd5b82018360208201111561022e57600080fd5b803590602001918460018302840111600160201b8311171561024f57600080fd5b919390929091602081019035600160201b81111561026c57600080fd5b82018360208201111561027e57600080fd5b803590602001918460018302840111600160201b8311171561029f57600080fd5b919350915035610490565b6101b0600480360360608110156102c057600080fd5b50803590602081013590604001356105ac565b6100a06105c3565b6100a06105c9565b60015490565b60006102f583836105cf565b90505b92915050565b60006103098261064b565b90505b919050565b60008061036c610361600086868080601f016020809104026020016040519081016040528093929190818152602001838380828437600092019190915250929392505063ffffffff6106f6169050565b62ffffff191661071a565b905060006103c86103bd600089898080601f016020809104026020016040519081016040528093929190818152602001838380828437600092019190915250929392505063ffffffff6106f6169050565b62ffffff191661079b565b90506103d962ffffff1983166107da565b6104145760405162461bcd60e51b815260040180806020018281038252602b815260200180611beb602b913960400191505060405180910390fd5b61042362ffffff1982166107da565b610474576040805162461bcd60e51b815260206004820152601760248201527f416e63686f72206d757374206265203830206279746573000000000000000000604482015290519081900360640190fd5b61047e81836107ec565b925050505b949350505050565b600481565b6000806104e06103bd600087878080601f016020809104026020016040519081016040528093929190818152602001838380828437600092019190915250929392505063ffffffff6106f6169050565b905060006105316103bd60008a8a8080601f016020809104026020016040519081016040528093929190818152602001838380828437600092019190915250929392505063ffffffff6106f6169050565b905061054262ffffff1983166107da565b8015610558575061055862ffffff1982166107da565b6105935760405162461bcd60e51b815260040180806020018281038252602e815260200180611c37602e913960400191505060405180910390fd5b61059f89828487610a88565b9998505050505050505050565b60006105b9848484610c88565b90505b9392505050565b60025490565b60005490565b600082815b838110156106055760009182526003602052604090912054906105fe81600163ffffffff610cdd16565b90506105d4565b50806102f5576040805162461bcd60e51b815260206004820152601060248201526f2ab735b737bbb71030b731b2b9ba37b960811b604482015290519081900360640190fd5b60008082815b60058110156106b8576000828152600460205260409020549250826106865760009182526003602052604090912054906106a0565b610696838263ffffffff610cdd16565b935050505061030c565b6106b181600163ffffffff610cdd16565b9050610651565b506040805162461bcd60e51b815260206004820152600d60248201526c556e6b6e6f776e20626c6f636b60981b604482015290519081900360640190fd5b81516000906020840161071164ffffffffff85168284610d35565b95945050505050565b60008181610736815b62ffffff1984169063ffffffff610d7516565b50605061074862ffffff198616610eb3565b6001600160601b03168161075857fe5b066001600160601b031660001461077857610771610ec2565b9250610794565b61079160115b62ffffff1986169063ffffffff610eca16565b92505b5050919050565b600081816107a881610723565b506107b862ffffff198516610eb3565b6001600160601b03166050146107d057610771610ec2565b610791601061077e565b60006107e582610edc565b1592915050565b6000806107fe62ffffff198516610ee8565b9050600061080b8261064b565b9050600061081e62ffffff198716610f36565b63ffffffff1690506000808080805b605061083e62ffffff198c16610eb3565b6001600160601b03168161084e57fe5b046001600160601b0316811015610a3e57600061087762ffffff198c168363ffffffff610f5e16565b905061088862ffffff198216610fa0565b935061089d886001840163ffffffff610cdd16565b95506108ae62ffffff198216610ee8565b60008181526003602052604090205490955061094c57836108ce8661100f565b1115610921576040805162461bcd60e51b815260206004820152601b60248201527f48656164657220776f726b20697320696e73756666696369656e740000000000604482015290519081900360640190fd5b60008581526003602052604090208990556004860661094c5760008581526004602052604090208690555b61097260055460065460075461096c60018b61114990919063ffffffff16565b8b6111a6565b925083838516146109ca576040805162461bcd60e51b815260206004820152601960248201527f496e76616c69642072657461726765742070726f766964656400000000000000604482015290519081900360640190fd5b6109e062ffffff1982168a63ffffffff61129416565b610a1b5760405162461bcd60e51b8152600401808060200182810382526026815260200180611b926026913960400191505060405180910390fd5b849850610a2d8162ffffff1916610f36565b63ffffffff1696505060010161082d565b5082610a4f62ffffff198c16610ee8565b6040517ff90e4f1d9cd0dd55e339411cbc9b152482307c3a23ed64715e4a2858f641a3f590600090a35060019998505050505050505050565b60006107e0821115610acb5760405162461bcd60e51b8152600401808060200182810382526033815260200180611bb86033913960400191505060405180910390fd5b6000610adc62ffffff198516610ee8565b90506000610aef62ffffff198716610ee8565b90506001548114610b47576040805162461bcd60e51b815260206004820181905260248201527f50617373656420696e2062657374206973206e6f742062657374206b6e6f776e604482015290519081900360640190fd5b600082815260036020526040902054610b9d576040805162461bcd60e51b81526020600482015260136024820152722732bb903132b9ba1034b9903ab735b737bbb760691b604482015290519081900360640190fd5b610bab8760015484876112bd565b610be65760405162461bcd60e51b8152600401808060200182810382526029815260200180611d376029913960400191505060405180910390fd5b81610bf288888861136e565b14610c2e5760405162461bcd60e51b8152600401808060200182810382526033815260200180611c656033913960400191505060405180910390fd5b600182905560028790556000610c4962ffffff1987166114f4565b90508783837f3cc13de64df0f0239626235c51a2da251bbc8c85664ecce39263da3ee03f606c60405160405180910390a4506001979650505050505050565b600082815b83811015610cd15785821415610ca8576001925050506105bc565b6000918252600360205260409091205490610cca81600163ffffffff610cdd16565b9050610c8d565b50600095945050505050565b818101828110156102f8576040805162461bcd60e51b815260206004820152601960248201527f4f766572666c6f7720647572696e67206164646974696f6e2e00000000000000604482015290519081900360640190fd5b600080610d48848463ffffffff610cdd16565b9050604051811115610d58575060005b80610d6a5762ffffff199150506105bc565b610711858585611514565b6000610d818383611527565b610eac576000610d9f610d9385611549565b64ffffffffff1661154f565b9150506000610db48464ffffffffff1661154f565b604080517f5479706520617373657274696f6e206661696c65642e20476f742030780000006020808301919091526001600160b01b031960b088811b8216603d8501526c05c408af0e0cac6e8cac84060f609b1b604785015285901b1660548301528251603e818403018152605e83019384905262461bcd60e51b909352606282018181528351608284015283519496509294508493839260a2019185019080838360005b83811015610e71578181015183820152602001610e59565b50505050905090810190601f168015610e9e5780820380516001836020036101000a031916815260200191505b509250505060405180910390fd5b5090919050565b60181c6001600160601b031690565b62ffffff1990565b60d81b6001600160d81b039091161790565b62ffffff199081161490565b600080610ef4836115e7565b6001600160601b031690506000610f0a84610eb3565b6001600160601b03169050604051602081838560025afa5060208160208360025afa5051949350505050565b6000816010610f4481610723565b5061079162ffffff1985166044600463ffffffff6115f616565b6000826011610f6c81610723565b506000610f8085605063ffffffff61160b16565b9050610f9662ffffff198716826050601061167b565b9695505050505050565b6000816010610fae81610723565b506000610fca62ffffff1986166048600363ffffffff6115f616565b90506000610ff86003610fec62ffffff198916604b600163ffffffff6116f216565b9063ffffffff61114916565b9050610f968261010083900a63ffffffff61160b16565b600881811c7eff00ff00ff00ff00ff00ff00ff00ff00ff00ff00ff00ff00ff00ff00ff00ff167fff00ff00ff00ff00ff00ff00ff00ff00ff00ff00ff00ff00ff00ff00ff00ff009290911b9190911617601081811c7dffff0000ffff0000ffff0000ffff0000ffff0000ffff0000ffff0000ffff167fffff0000ffff0000ffff0000ffff0000ffff0000ffff0000ffff0000ffff00009290911b9190911617602081811c7bffffffff00000000ffffffff00000000ffffffff00000000ffffffff167fffffffff00000000ffffffff00000000ffffffff00000000ffffffff000000009290911b9190911617604081811c77ffffffffffffffff0000000000000000ffffffffffffffff1677ffffffffffffffff0000000000000000ffffffffffffffff199290911b9190911617608081811c91901b1790565b6000828211156111a0576040805162461bcd60e51b815260206004820152601d60248201527f556e646572666c6f7720647572696e67207375627472616374696f6e2e000000604482015290519081900360640190fd5b50900390565b6000806111b6631d00ffff611713565b905060006111c386611713565b90508684038886036202a3006201000060018301610258028403810291909105601081901d808302909103916580000000000065b20c6c1dd0f984026339ecd1408580029081029190910190850261140702010160301d018086026000831215611240578260000381600082121561123757fe5b901c9050611252565b8281600082121561124d57fe5b901b90505b60101c8061126b57600198505050505050505050610711565b87811115611283578798505050505050505050610711565b9d9c50505050505050505050505050565b60008260106112a281610723565b50836112b362ffffff198716611750565b1495945050505050565b600083851480156112cd57508285145b156112da57506001610483565b8383818160005b8681101561133557898314611303576000838152600360205260409020549294505b89821461131d576000828152600360205260409020549193505b61132e81600163ffffffff610cdd16565b90506112e1565b508284141561134b576000945050505050610483565b80821461135f576000945050505050610483565b50600198975050505050505050565b60008061137a8561064b565b9050600061139561139062ffffff198716610ee8565b61064b565b905060006113ab61139062ffffff198716610ee8565b90508282101580156113bd5750828110155b6113f85760405162461bcd60e51b8152600401808060200182810382526030815260200180611cd26030913960400191505060405180910390fd5b60006114146107e08506610fec866107e063ffffffff610cdd16565b90508083108183108115826114265750805b156114475761143a62ffffff198a16610ee8565b96505050505050506105bc565b818015611452575080155b156114665761143a62ffffff198916610ee8565b8180156114705750805b156114a057838510156114915761148c62ffffff198916610ee8565b61143a565b61143a62ffffff198a16610ee8565b6114c46114b262ffffff198a166114f4565b6107e0865b069063ffffffff61160b16565b6114df6114d662ffffff198c166114f4565b6107e0886114b7565b10156114915761143a62ffffff198916610ee8565b600081601061150281610723565b5061079161150f85610fa0565b611778565b606092831b9190911790911b1760181b90565b60008164ffffffffff1661153a84611549565b64ffffffffff16149392505050565b60d81c90565b600080601f5b600f8160ff1611156115995760ff600882021684901c6115748161178f565b61ffff16841793508160ff1660101461158f57601084901b93505b5060001901611555565b50600f5b60ff8160ff1610156115e15760ff600882021684901c6115bc8161178f565b61ffff16831792508160ff166000146115d757601083901b92505b506000190161159d565b50915091565b60781c6001600160601b031690565b60006105b96116068585856117bf565b61100f565b60008261161a575060006102f8565b508181028183828161162857fe5b04146102f8576040805162461bcd60e51b815260206004820152601f60248201527f4f766572666c6f7720647572696e67206d756c7469706c69636174696f6e2e00604482015290519081900360640190fd5b600080611687866115e7565b6001600160601b0316905061169b866118eb565b6116bb856116af848963ffffffff610cdd16565b9063ffffffff610cdd16565b11156116ce5762ffffff19915050610483565b6116de818663ffffffff610cdd16565b9050610f968364ffffffffff168286610d35565b60008160200360080260ff166117098585856117bf565b901c949350505050565b600080601883901c627fffff84166003821161173a578160030360080281901c9250611747565b6003820360080281901b92505b50909392505050565b600081601061175e81610723565b5061079162ffffff1985166004602063ffffffff6117bf16565b600061030961ffff60d01b8363ffffffff61191016565b60006117a160048360ff16901c611923565b60ff161760081b62ffff00166117b682611923565b60ff1617919050565b600060ff82166117d1575060006105bc565b6117da84610eb3565b6001600160601b03166117f68460ff851663ffffffff610cdd16565b11156118745761182d611808856115e7565b6001600160601b031661181a86610eb3565b6001600160601b0316858560ff16611a8f565b60405162461bcd60e51b8152602060048201818152835160248401528351909283926044909101919085019080838360008315610e71578181015183820152602001610e59565b60208260ff1611156118b75760405162461bcd60e51b815260040180806020018281038252603a815260200180611c98603a913960400191505060405180910390fd5b6008820260006118c6866115e7565b6001600160601b0316905060006118dc83611b82565b91909501511695945050505050565b60006118f682610eb3565b6118ff836115e7565b016001600160601b03169050919050565b600081838161191b57fe5b049392505050565b600060f08083179060ff8216141561193f57603091505061030c565b8060ff1660f1141561195557603191505061030c565b8060ff1660f2141561196b57603291505061030c565b8060ff1660f3141561198157603391505061030c565b8060ff1660f4141561199757603491505061030c565b8060ff1660f514156119ad57603591505061030c565b8060ff1660f614156119c357603691505061030c565b8060ff1660f714156119d957603791505061030c565b8060ff1660f814156119ef57603891505061030c565b8060ff1660f91415611a0557603991505061030c565b8060ff1660fa1415611a1b57606191505061030c565b8060ff1660fb1415611a3157606291505061030c565b8060ff1660fc1415611a4757606391505061030c565b8060ff1660fd1415611a5d57606491505061030c565b8060ff1660fe1415611a7357606591505061030c565b8060ff1660ff1415611a8957606691505061030c565b50919050565b60606000611a9c8661154f565b9150506000611aaa8661154f565b9150506000611ab88661154f565b9150506000611ac68661154f565b915050838383836040516020018080611d02603591396001600160d01b031960d087811b821660358401526e040eed2e8d040d8cadccee8d04060f608b1b603b84015286901b16604a8201526050016021611c1682396001600160d01b031960d094851b811660218301526e040eed2e8d040d8cadccee8d04060f608b1b60278301529290931b909116603683015250601760f91b603c82015260408051601d818403018152603d90920190529b9a5050505050505050505050565b600160ff1b6000199091011d9056fe4865616465727320646f206e6f7420666f726d206120636f6e73697374656e7420636861696e526571756573746564206c696d69742069732067726561746572207468616e203120646966666963756c747920706572696f64486561646572206172726179206c656e677468206d75737420626520646976697369626c652062792038302e20417474656d7074656420746f20696e646578206174206f666673657420307842616420617267732e20436865636b2068656164657220616e642061727261792062797465206c656e677468732e4e65772062657374206861736820646f6573206e6f742068617665206d6f726520776f726b207468616e2070726576696f757354797065644d656d566965772f696e646578202d20417474656d7074656420746f20696e646578206d6f7265207468616e203332206279746573412064657363656e64616e74206865696768742069732062656c6f772074686520616e636573746f722068656967687454797065644d656d566965772f696e646578202d204f76657272616e2074686520766965772e20536c696365206973206174203078416e636573746f72206d75737420626520686561766965737420636f6d6d6f6e20616e636573746f72a265627a7a723058200946a206126051f1bbf7182fc37c82228568f8631881b8ccb53ec057440c330f64736f6c634300050a0032",
  "source": "pragma solidity ^0.5.10;\n\n/** @title Relay */\n/** @author Summa (https://summa.one) */\n\nimport {SafeMath} from \"@summa-tx/bitcoin-spv-sol/contracts/SafeMath.sol\";\nimport {TypedMemView} from \"@summa-tx/bitcoin-spv-sol/contracts/TypedMemView.sol\";\nimport {ViewBTC} from \"@summa-tx/bitcoin-spv-sol/contracts/ViewBTC.sol\";\nimport {ViewSPV} from \"@summa-tx/bitcoin-spv-sol/contracts/ViewSPV.sol\";\nimport {IRelay} from \"./Interfaces.sol\";\n\ncontract Relay is IRelay {\n    using SafeMath for uint256;\n    using TypedMemView for bytes;\n    using TypedMemView for bytes29;\n    using ViewBTC for bytes29;\n    using ViewSPV for bytes29;\n\n    /* using BytesLib for bytes;\n    using BTCUtils for bytes;\n    using ValidateSPV for bytes; */\n\n    int256 constant IDEAL_BLOCK_TIME = 600;\n    int256 constant HALFLIFE = 172800;\n    int256 constant RADIX = 2 ** 16;\n    uint256 constant MAX_BITS = 0x1d00ffff;\n\n    // How often do we store the height?\n    // A higher number incurs less storage cost, but more lookup cost\n    uint32 public constant HEIGHT_INTERVAL = 4;\n\n    bytes32 internal relayGenesis;\n    bytes32 internal bestKnownDigest;\n    bytes32 internal lastReorgCommonAncestor;\n    mapping (bytes32 => bytes32) internal previousBlock;\n    mapping (bytes32 => uint256) internal blockHeight;\n\n    \n    uint256 anchorHeight;\n    uint256 anchorParentTime;\n    uint256 anchorNBits;\n\n    /// @notice                   Gives a starting point for the relay\n    /// @dev                      We don't check this AT ALL really. Don't use relays with bad genesis\n    /// @param  _genesisHeader    The starting header\n    /// @param  _height           The starting height\n    constructor(\n                bytes memory _genesisHeader,\n                uint256 _height,\n                uint256 _anchorHeight,\n                uint256 _anchorParentTime,\n                uint256 _anchorNBits\n                ) public {\n        bytes29 _genesisView = _genesisHeader.ref(0).tryAsHeader();\n        require(_genesisView.notNull(), \"Stop being dumb\");\n        bytes32 _genesisDigest = _genesisView.hash256();\n\n        relayGenesis = _genesisDigest;\n        bestKnownDigest = _genesisDigest;\n        lastReorgCommonAncestor = _genesisDigest;\n        blockHeight[_genesisDigest] = _height;\n\n        anchorHeight = _anchorHeight;\n        anchorParentTime = _anchorParentTime;\n        anchorNBits = _anchorNBits;\n    }\n\n    /// @notice     Getter for relayGenesis\n    /// @dev        This is an initialization parameter\n    /// @return     The hash of the first block of the relay\n    function getRelayGenesis() public view returns (bytes32) {\n        return relayGenesis;\n    }\n\n    /// @notice     Getter for bestKnownDigest\n    /// @dev        This updated only by calling markNewHeaviest\n    /// @return     The hash of the best marked chain tip\n    function getBestKnownDigest() public view returns (bytes32) {\n        return bestKnownDigest;\n    }\n\n    /// @notice     Getter for relayGenesis\n    /// @dev        This is updated only by calling markNewHeaviest\n    /// @return     The hash of the shared ancestor of the most recent fork\n    function getLastReorgCommonAncestor() public view returns (bytes32) {\n        return lastReorgCommonAncestor;\n    }\n\n    /// @notice         Finds the height of a header by its digest\n    /// @dev            Will fail if the header is unknown\n    /// @param _digest  The header digest to search for\n    /// @return         The height of the header, or error if unknown\n    function findHeight(bytes32 _digest) external view returns (uint256) {\n        return _findHeight(_digest);\n    }\n\n    /// @notice         Finds an ancestor for a block by its digest\n    /// @dev            Will fail if the header is unknown\n    /// @param _digest  The header digest to search for\n    /// @return         The height of the header, or error if unknown\n    function findAncestor(bytes32 _digest, uint256 _offset) external view returns (bytes32) {\n        return _findAncestor(_digest, _offset);\n    }\n\n    /// @notice             Checks if a digest is an ancestor of the current one\n    /// @dev                Limit the amount of lookups (and thus gas usage) with _limit\n    /// @param _ancestor    The prospective ancestor\n    /// @param _descendant  The descendant to check\n    /// @param _limit       The maximum number of blocks to check\n    /// @return             true if ancestor is at most limit blocks lower than descendant, otherwise false\n    function isAncestor(bytes32 _ancestor, bytes32 _descendant, uint256 _limit) external view returns (bool) {\n        return _isAncestor(_ancestor, _descendant, _limit);\n    }\n\n    /// @notice             Adds headers to storage after validating\n    /// @dev                We check integrity and consistency of the header chain\n    /// @param  _anchor     The header immediately preceeding the new chain\n    /// @param  _headers    A tightly-packed list of 80-byte Bitcoin headers\n    /// @return             True if successfully written, error otherwise\n    function addHeaders(bytes calldata _anchor, bytes calldata _headers) external returns (bool) {\n        bytes29 _headersView = _headers.ref(0).tryAsHeaderArray();\n        bytes29 _anchorView = _anchor.ref(0).tryAsHeader();\n\n        require(_headersView.notNull(), \"Header array length must be divisible by 80\");\n        require(_anchorView.notNull(), \"Anchor must be 80 bytes\");\n\n        return _addHeaders(_anchorView, _headersView);\n    }\n\n    /// @notice                   Gives a starting point for the relay\n    /// @dev                      We don't check this AT ALL really. Don't use relays with bad genesis\n    /// @param  _ancestor         The digest of the most recent common ancestor\n    /// @param  _currentBest      The 80-byte header referenced by bestKnownDigest\n    /// @param  _newBest          The 80-byte header to mark as the new best\n    /// @param  _limit            Limit the amount of traversal of the chain\n    /// @return                   True if successfully updates bestKnownDigest, error otherwise\n    function markNewHeaviest(\n        bytes32 _ancestor,\n        bytes calldata _currentBest,\n        bytes calldata _newBest,\n        uint256 _limit\n    ) external returns (bool) {\n        bytes29 _new = _newBest.ref(0).tryAsHeader();\n        bytes29 _current = _currentBest.ref(0).tryAsHeader();\n        require(\n            _new.notNull() && _current.notNull(),\n            \"Bad args. Check header and array byte lengths.\"\n        );\n        return _markNewHeaviest(_ancestor, _current, _new, _limit);\n    }\n\n    /// @notice             Adds headers to storage after validating\n    /// @dev                We check integrity and consistency of the header chain\n    /// @param  _anchor     The header immediately preceeding the new chain\n    /// @param  _headers    A tightly-packed list of new 80-byte Bitcoin headers to record\n    /// @return             True if successfully written, error otherwise\n    function _addHeaders(bytes29 _anchor, bytes29 _headers) internal returns (bool) {\n        /// Extract basic info\n        bytes32 _previousDigest = _anchor.hash256();\n        uint256 _anchorHeight = _findHeight(_previousDigest);  /* NB: errors if unknown */\n        uint256 _previousTime = _anchor.time();\n\n        /*\n        NB:\n        1. check that the header has sufficient work\n        2. check that headers are in a coherent chain (no retargets, hash links good)\n        3. Store the block connection\n        4. Store the height\n        */\n        // TODO: Just add actual target == expected target to this list of checks\n        uint256 _height;\n        bytes32 _currentDigest;\n        uint256 _target;\n        uint256 _expectedTarget;\n        for (uint256 i = 0; i < _headers.len() / 80; i += 1) {\n            bytes29 _header = _headers.indexHeaderArray(i);\n            _target = _header.target();\n            _height = _anchorHeight.add(i + 1);\n            _currentDigest = _header.hash256();\n            \n            /*\n            NB:\n            if the block is already authenticated, we don't need to a work check\n            Or write anything to state. This saves gas\n            */\n            if (previousBlock[_currentDigest] == bytes32(0)) {\n                require(\n                    TypedMemView.reverseUint256(uint256(_currentDigest)) <= _target,\n                    \"Header work is insufficient\"\n                );\n                previousBlock[_currentDigest] = _previousDigest;\n                if (_height % HEIGHT_INTERVAL == 0) {\n                    /*\n                    NB: We store the height only every 4th header to save gas\n                    */\n                    blockHeight[_currentDigest] = _height;\n                }\n            }\n\n            _expectedTarget = _nextTarget(int(anchorHeight),\n                                          int(anchorParentTime),\n                                          anchorNBits,\n                                          int(_height.sub(1)),\n                                          int(_previousTime));\n            require((_target & _expectedTarget) == _target,\n                    \"Invalid retarget provided\");\n\n            /* NB: we do still need to make chain level checks tho */\n            require(_header.checkParent(_previousDigest), \"Headers do not form a consistent chain\");\n\n            _previousDigest = _currentDigest;\n            _previousTime = _header.time();\n        }\n\n        emit Extension(\n            _anchor.hash256(),\n            _currentDigest);\n        return true;\n    }\n\n    /// @notice         Finds the height of a header by its digest\n    /// @dev            Will fail if the header is unknown\n    /// @param _digest  The header digest to search for\n    /// @return         The height of the header\n    function _findHeight(bytes32 _digest) internal view returns (uint256) {\n        uint256 _height = 0;\n        bytes32 _current = _digest;\n        for (uint256 i = 0; i < HEIGHT_INTERVAL + 1; i = i.add(1)) {\n            _height = blockHeight[_current];\n            if (_height == 0) {\n                _current = previousBlock[_current];\n            } else {\n                return _height.add(i);\n            }\n        }\n        revert(\"Unknown block\");\n    }\n\n    /// @notice         Finds an ancestor for a block by its digest\n    /// @dev            Will fail if the header is unknown\n    /// @param _digest  The header digest to search for\n    /// @return         The height of the header, or error if unknown\n    function _findAncestor(bytes32 _digest, uint256 _offset) internal view returns (bytes32) {\n        bytes32 _current = _digest;\n        for (uint256 i = 0; i < _offset; i = i.add(1)) {\n            _current = previousBlock[_current];\n        }\n        require(_current != bytes32(0), \"Unknown ancestor\");\n        return _current;\n    }\n\n    /// @notice             Checks if a digest is an ancestor of the current one\n    /// @dev                Limit the amount of lookups (and thus gas usage) with _limit\n    /// @param _ancestor    The prospective ancestor\n    /// @param _descendant  The descendant to check\n    /// @param _limit       The maximum number of blocks to check\n    /// @return             true if ancestor is at most limit blocks lower than descendant, otherwise false\n    function _isAncestor(bytes32 _ancestor, bytes32 _descendant, uint256 _limit) internal view returns (bool) {\n        bytes32 _current = _descendant;\n        /* NB: 200 gas/read, so gas is capped at ~200 * limit */\n        for (uint256 i = 0; i < _limit; i = i.add(1)) {\n            if (_current == _ancestor) {\n                return true;\n            }\n            _current = previousBlock[_current];\n        }\n        return false;\n    }\n\n    /// @notice                   Marks the new best-known chain tip\n    /// @param  _ancestor         The digest of the most recent common ancestor\n    /// @param  _current          The 80-byte header referenced by bestKnownDigest\n    /// @param  _new              The 80-byte header to mark as the new best\n    /// @param  _limit            Limit the amount of traversal of the chain\n    /// @return                   True if successfully updates bestKnownDigest, error otherwise\n    function _markNewHeaviest(\n        bytes32 _ancestor,\n        bytes29 _current,  // Header\n        bytes29 _new,      // Header\n        uint256 _limit\n    ) internal returns (bool) {\n        require(_limit <= 2016, \"Requested limit is greater than 1 difficulty period\");\n\n        bytes32 _newBestDigest = _new.hash256();\n        bytes32 _currentBestDigest = _current.hash256();\n        require(_currentBestDigest == bestKnownDigest, \"Passed in best is not best known\");\n        require(\n            previousBlock[_newBestDigest] != bytes32(0),\n            \"New best is unknown\");\n        require(\n            _isMostRecentAncestor(_ancestor, bestKnownDigest, _newBestDigest, _limit),\n            \"Ancestor must be heaviest common ancestor\");\n        require(\n            _heaviestFromAncestor(_ancestor, _current, _new) == _newBestDigest,\n            \"New best hash does not have more work than previous\");\n\n        bestKnownDigest = _newBestDigest;\n        lastReorgCommonAncestor = _ancestor;\n\n        uint256 _newDiff = _new.diff();\n        /* if (_newDiff != currentEpochDiff) { */\n        /*     currentEpochDiff = _newDiff; */\n        /* } */\n\n        emit NewTip(\n            _currentBestDigest,\n            _newBestDigest,\n            _ancestor);\n        return true;\n    }\n\n    /// @notice             Checks if a digest is an ancestor of the current one\n    /// @dev                Limit the amount of lookups (and thus gas usage) with _limit\n    /// @param _ancestor    The prospective shared ancestor\n    /// @param _left        A chain tip\n    /// @param _right       A chain tip\n    /// @param _limit       The maximum number of blocks to check\n    /// @return             true if it is the most recent common ancestor within _limit, false otherwise\n    function _isMostRecentAncestor(\n        bytes32 _ancestor,\n        bytes32 _left,\n        bytes32 _right,\n        uint256 _limit\n    ) internal view returns (bool) {\n        /* NB: sure why not */\n        if (_ancestor == _left && _ancestor == _right) {\n            return true;\n        }\n\n        bytes32 _leftCurrent = _left;\n        bytes32 _rightCurrent = _right;\n        bytes32 _leftPrev = _left;\n        bytes32 _rightPrev = _right;\n\n        for(uint256 i = 0; i < _limit; i = i.add(1)) {\n            if (_leftPrev != _ancestor) {\n                _leftCurrent = _leftPrev;  // cheap\n                _leftPrev = previousBlock[_leftPrev];  // expensive\n            }\n            if (_rightPrev != _ancestor) {\n                _rightCurrent = _rightPrev;  // cheap\n                _rightPrev = previousBlock[_rightPrev];  // expensive\n            }\n        }\n        if (_leftCurrent == _rightCurrent) {return false;} /* NB: If the same, they're a nearer ancestor */\n        if (_leftPrev != _rightPrev) {return false;} /* NB: Both must be ancestor */\n        return true;\n    }\n\n    /// @notice             Decides which header is heaviest from the ancestor\n    /// @dev                Does not support reorgs above 2017 blocks (:\n    /// @param _ancestor    The prospective shared ancestor\n    /// @param _left        A chain tip\n    /// @param _right       A chain tip\n    /// @return             true if it is the most recent common ancestor within _limit, false otherwise\n    function _heaviestFromAncestor(\n        bytes32 _ancestor,\n        bytes29 _left,\n        bytes29 _right\n    ) internal view returns (bytes32) {\n        uint256 _ancestorHeight = _findHeight(_ancestor);\n        uint256 _leftHeight = _findHeight(_left.hash256());\n        uint256 _rightHeight = _findHeight(_right.hash256());\n\n        require(\n            _leftHeight >= _ancestorHeight && _rightHeight >= _ancestorHeight,\n            \"A descendant height is below the ancestor height\");\n\n        /* NB: we can shortcut if one block is in a new difficulty window and the other isn't */\n        uint256 _nextPeriodStartHeight = _ancestorHeight.add(2016).sub(_ancestorHeight % 2016);\n        bool _leftInPeriod = _leftHeight < _nextPeriodStartHeight;\n        bool _rightInPeriod = _rightHeight < _nextPeriodStartHeight;\n\n        /*\n        NB:\n        1. Left is in a new window, right is in the old window. Left is heavier\n        2. Right is in a new window, left is in the old window. Right is heavier\n        3. Both are in the same window, choose the higher one\n        4. They're in different new windows. Choose the heavier one\n        */\n        if (!_leftInPeriod && _rightInPeriod) {return _left.hash256();}\n        if (_leftInPeriod && !_rightInPeriod) {return _right.hash256();}\n        if (_leftInPeriod && _rightInPeriod) {\n            return _leftHeight >= _rightHeight ? _left.hash256() : _right.hash256();\n        } else {  // if (!_leftInPeriod && !_rightInPeriod) {\n            if (((_leftHeight % 2016).mul(_left.diff())) <\n                (_rightHeight % 2016).mul(_right.diff())) {\n                return _right.hash256();\n            } else {\n                return _left.hash256();\n            }\n        }\n    }\n\n    function _bitsToTarget(uint256 nBits) internal pure returns (uint256) {\n      uint256 target;\n      \n      uint256 exponent = nBits >> 24;\n      uint256 mantissa = nBits & 0x007fffff;\n      \n      if (exponent <= 3) {\n        target = mantissa >> (8 * (3 - exponent));\n      } else {\n        target = mantissa << (8 * (exponent - 3));\n      }\n      return target;\n    }\n    \n    function _nextTarget(int256 anchorHeigth,\n                        int256 anchorParentTime,\n                        uint256 anchorNBits,\n                        int256 currentHeigth,\n                        int256 currentTime\n                        ) internal pure returns (uint256) {\n      \n      uint256 maxTarget = _bitsToTarget(MAX_BITS);\n      uint256 anchorTarget = _bitsToTarget(anchorNBits);\n      \n      int256 timeDelta = currentTime - anchorParentTime;\n      int256 heigthDelta = currentHeigth - anchorHeigth;\n      \n      int256 exponent =\n        ((timeDelta - IDEAL_BLOCK_TIME * (heigthDelta + 1)) * RADIX) / HALFLIFE;\n      int256 numShifts = exponent >> 16;\n      exponent = exponent - numShifts * RADIX;\n      \n      // I think factor can be negative...\n      int256 factor =\n        ((195766423245049 * exponent + 971821376 * exponent * exponent +\n          5127 * exponent * exponent * exponent + 2 ** 47) >> 48) + RADIX;\n      \n      // if factor is negative, is this cast a problem?\n      uint256 nextTarget = anchorTarget * uint256(factor);\n      \n      if (numShifts < 0) {\n        nextTarget = nextTarget >> (-numShifts);\n      } else {\n        nextTarget = nextTarget << numShifts;\n      }\n      \n      nextTarget = nextTarget >> 16;\n      \n      if (nextTarget == 0) {\n        return 1;\n      }\n      \n      if (nextTarget > maxTarget) {\n        return maxTarget;\n      }\n      \n      return nextTarget;\n    }\n}\n\n// For unittests\ncontract TestRelay is Relay {\n\n    /// @notice                   Gives a starting point for the relay\n    /// @dev                      We don't check this AT ALL really. Don't use relays with bad genesis\n    /// @param  _genesisHeader    The starting header\n    /// @param  _height           The starting height\n    constructor(bytes memory _genesisHeader,\n                uint256 _height,\n                uint256 _anchorHeight,\n                uint256 _anchorParentTime,\n                uint256 _anchorNBits)\n      Relay(_genesisHeader, _height, _anchorHeight, _anchorParentTime, _anchorNBits)\n    public {}\n\n    function heaviestFromAncestor(\n        bytes32 _ancestor,\n        bytes calldata _left,\n        bytes calldata _right\n    ) external view returns (bytes32) {\n        return _heaviestFromAncestor(\n            _ancestor,\n            _left.ref(0).tryAsHeader(),\n            _right.ref(0).tryAsHeader()\n        );\n    }\n\n    function isMostRecentAncestor(\n        bytes32 _ancestor,\n        bytes32 _left,\n        bytes32 _right,\n        uint256 _limit\n    ) external view returns (bool) {\n        return _isMostRecentAncestor(_ancestor, _left, _right, _limit);\n    }\n}\n",
  "sourcePath": "/Users/jankremser/projects/neo-strudel/relays/solidity/contracts/Relay.sol",
  "compiler": {
    "name": "solc",
    "version": "0.5.10+commit.5a6ea5b1.Emscripten.clang"
  },
  "schemaVersion": "3.3.4",
  "updatedAt": "2021-04-07T10:30:42.221Z",
  "networkType": "ethereum",
  "devdoc": {
    "methods": {
      "addHeaders(bytes,bytes)": {
        "details": "We check integrity and consistency of the header chain",
        "params": {
          "_anchor": "The header immediately preceeding the new chain",
          "_headers": "A tightly-packed list of 80-byte Bitcoin headers"
        },
        "return": "True if successfully written, error otherwise"
      },
      "constructor": {
        "details": "We don't check this AT ALL really. Don't use relays with bad genesis",
        "params": {
          "_genesisHeader": "The starting header",
          "_height": "The starting height"
        }
      },
      "findAncestor(bytes32,uint256)": {
        "details": "Will fail if the header is unknown",
        "params": {
          "_digest": "The header digest to search for"
        },
        "return": "The height of the header, or error if unknown"
      },
      "findHeight(bytes32)": {
        "details": "Will fail if the header is unknown",
        "params": {
          "_digest": "The header digest to search for"
        },
        "return": "The height of the header, or error if unknown"
      },
      "getBestKnownDigest()": {
        "details": "This updated only by calling markNewHeaviest",
        "return": "The hash of the best marked chain tip"
      },
      "getLastReorgCommonAncestor()": {
        "details": "This is updated only by calling markNewHeaviest",
        "return": "The hash of the shared ancestor of the most recent fork"
      },
      "getRelayGenesis()": {
        "details": "This is an initialization parameter",
        "return": "The hash of the first block of the relay"
      },
      "isAncestor(bytes32,bytes32,uint256)": {
        "details": "Limit the amount of lookups (and thus gas usage) with _limit",
        "params": {
          "_ancestor": "The prospective ancestor",
          "_descendant": "The descendant to check",
          "_limit": "The maximum number of blocks to check"
        },
        "return": "true if ancestor is at most limit blocks lower than descendant, otherwise false"
      },
      "markNewHeaviest(bytes32,bytes,bytes,uint256)": {
        "details": "We don't check this AT ALL really. Don't use relays with bad genesis",
        "params": {
          "_ancestor": "The digest of the most recent common ancestor",
          "_currentBest": "The 80-byte header referenced by bestKnownDigest",
          "_limit": "Limit the amount of traversal of the chain",
          "_newBest": "The 80-byte header to mark as the new best"
        },
        "return": "True if successfully updates bestKnownDigest, error otherwise"
      }
    }
  },
  "userdoc": {
    "methods": {
      "addHeaders(bytes,bytes)": {
        "notice": "Adds headers to storage after validating"
      },
      "constructor": "Gives a starting point for the relay",
      "findAncestor(bytes32,uint256)": {
        "notice": "Finds an ancestor for a block by its digest"
      },
      "findHeight(bytes32)": {
        "notice": "Finds the height of a header by its digest"
      },
      "getBestKnownDigest()": {
        "notice": "Getter for bestKnownDigest"
      },
      "getLastReorgCommonAncestor()": {
        "notice": "Getter for relayGenesis"
      },
      "getRelayGenesis()": {
        "notice": "Getter for relayGenesis"
      },
      "isAncestor(bytes32,bytes32,uint256)": {
        "notice": "Checks if a digest is an ancestor of the current one"
      },
      "markNewHeaviest(bytes32,bytes,bytes,uint256)": {
        "notice": "Gives a starting point for the relay"
      }
    }
  }
}